{
  "address": "0xcBc8e59F7B989db68F7BEAA9F7c4C0456D38e0bf",
  "abi": [
    {
      "inputs": [],
      "stateMutability": "nonpayable",
      "type": "constructor"
    },
    {
      "inputs": [
        {
          "internalType": "address",
          "name": "target",
          "type": "address"
        }
      ],
      "name": "AddressEmptyCode",
      "type": "error"
    },
    {
      "inputs": [
        {
          "internalType": "address",
          "name": "account",
          "type": "address"
        }
      ],
      "name": "AddressInsufficientBalance",
      "type": "error"
    },
    {
      "inputs": [],
      "name": "FailedInnerCall",
      "type": "error"
    },
    {
      "inputs": [
        {
          "internalType": "address",
          "name": "token",
          "type": "address"
        }
      ],
      "name": "SafeERC20FailedOperation",
      "type": "error"
    },
    {
      "anonymous": false,
      "inputs": [
        {
          "indexed": true,
          "internalType": "bytes32",
          "name": "orderId",
          "type": "bytes32"
        }
      ],
      "name": "OrderCancelled",
      "type": "event"
    },
    {
      "anonymous": false,
      "inputs": [
        {
          "indexed": true,
          "internalType": "bytes32",
          "name": "id",
          "type": "bytes32"
        },
        {
          "indexed": true,
          "internalType": "address",
          "name": "seller",
          "type": "address"
        },
        {
          "indexed": false,
          "internalType": "address",
          "name": "tokenA",
          "type": "address"
        },
        {
          "indexed": false,
          "internalType": "address",
          "name": "tokenB",
          "type": "address"
        },
        {
          "indexed": false,
          "internalType": "uint256",
          "name": "amountA",
          "type": "uint256"
        },
        {
          "indexed": false,
          "internalType": "uint256",
          "name": "amountB",
          "type": "uint256"
        }
      ],
      "name": "OrderCreated",
      "type": "event"
    },
    {
      "anonymous": false,
      "inputs": [
        {
          "indexed": true,
          "internalType": "bytes32",
          "name": "id",
          "type": "bytes32"
        },
        {
          "indexed": true,
          "internalType": "address",
          "name": "buyer",
          "type": "address"
        },
        {
          "indexed": false,
          "internalType": "uint256",
          "name": "buyAmount",
          "type": "uint256"
        },
        {
          "indexed": false,
          "internalType": "uint256",
          "name": "sellAmount",
          "type": "uint256"
        }
      ],
      "name": "OrderFilled",
      "type": "event"
    },
    {
      "inputs": [
        {
          "internalType": "bytes32",
          "name": "id",
          "type": "bytes32"
        }
      ],
      "name": "cancelOrder",
      "outputs": [],
      "stateMutability": "nonpayable",
      "type": "function"
    },
    {
      "inputs": [
        {
          "internalType": "address",
          "name": "_tokenA",
          "type": "address"
        },
        {
          "internalType": "uint256",
          "name": "_amountA",
          "type": "uint256"
        },
        {
          "internalType": "address",
          "name": "_tokenB",
          "type": "address"
        },
        {
          "internalType": "uint256",
          "name": "_amountB",
          "type": "uint256"
        }
      ],
      "name": "createOrder",
      "outputs": [],
      "stateMutability": "payable",
      "type": "function"
    },
    {
      "inputs": [
        {
          "internalType": "bytes32",
          "name": "id",
          "type": "bytes32"
        },
        {
          "internalType": "uint256",
          "name": "_amountB",
          "type": "uint256"
        }
      ],
      "name": "fillOrder",
      "outputs": [],
      "stateMutability": "payable",
      "type": "function"
    },
    {
      "inputs": [
        {
          "internalType": "bytes32",
          "name": "",
          "type": "bytes32"
        }
      ],
      "name": "orders",
      "outputs": [
        {
          "internalType": "address",
          "name": "seller",
          "type": "address"
        },
        {
          "internalType": "address",
          "name": "tokenA",
          "type": "address"
        },
        {
          "internalType": "uint256",
          "name": "amountA",
          "type": "uint256"
        },
        {
          "internalType": "address",
          "name": "tokenB",
          "type": "address"
        },
        {
          "internalType": "uint256",
          "name": "amountB",
          "type": "uint256"
        }
      ],
      "stateMutability": "view",
      "type": "function"
    }
  ],
  "transactionHash": "0xb73bfbc1c7911549b7be1c72e47882ac347084edba51580c9e133b78dcd2d469",
  "args": [],
  "numDeployments": 1,
  "solcInputHash": "7260c14c35ba9b4c02685d0545090d89",
  "bytecode": "0x608060405234801561001057600080fd5b50610bb7806100206000396000f3fe60806040526004361061003f5760003560e01c80631cea1be8146100445780637489ec23146100595780639c3f1e9014610079578063fc05ca311461010d575b600080fd5b610057610052366004610a0b565b610120565b005b34801561006557600080fd5b50610057610074366004610a2d565b610384565b34801561008557600080fd5b506100d2610094366004610a2d565b600060208190529081526040902080546001820154600283015460038401546004909401546001600160a01b03938416949284169391929091169085565b604080516001600160a01b03968716815294861660208601528401929092529092166060820152608081019190915260a00160405180910390f35b61005761011b366004610a62565b610556565b60008281526020818152604091829020825160a08101845281546001600160a01b0390811682526001830154811693820193909352600282015493810184905260038201549092166060830152600401546080820152906101bf5760405162461bcd60e51b815260206004820152601460248201527313dc99195c88185b1c9958591e48199a5b1b195960621b60448201526064015b60405180910390fd5b6000821180156101d3575080608001518211155b6101ef5760405162461bcd60e51b81526004016101b690610aa6565b600081608001518383604001516102069190610ae4565b6102109190610afb565b905080826040018181516102249190610b1d565b90525060808201805184919061023b908390610b1d565b90525060008481526020818152604091829020845181546001600160a01b03199081166001600160a01b039283161783559286015160018301805485169183169190911790559285015160028201556060850151600382018054909316931692831790915560808401516004909101556102e8578234146102ce5760405162461bcd60e51b81526004016101b690610aa6565b81516102e3906001600160a01b031684610733565b610307565b81516060830151610307916001600160a01b03909116903390866107cf565b60208201516001600160a01b0316610328576103233382610733565b610341565b6020820151610341906001600160a01b0316338361083c565b6040805184815260208101839052339186917f5bb6fb2ac27d4e7eddcefd58c08dfc9cf1df81d44dd8c4f8f8850c6f35e51dcc910160405180910390a350505050565b60008181526020818152604091829020825160a08101845281546001600160a01b03908116808352600184015482169483019490945260028301549482019490945260038201549093166060840152600401546080830152331461042a5760405162461bcd60e51b815260206004820181905260248201527f4f6e6c792073656c6c65722063616e2063616e63656c20746865206f7264657260448201526064016101b6565b60008160400151116104755760405162461bcd60e51b815260206004820152601460248201527313dc99195c88185b1c9958591e48199a5b1b195960621b60448201526064016101b6565b60408181018051600080835260808501818152868252602082815294909120855181546001600160a01b03199081166001600160a01b03928316178355958701516001830180548816918316918217905594516002830155606087015160038301805490971691161790945551600490930192909255610509578151610504906001600160a01b031682610733565b610526565b81516020830151610526916001600160a01b03909116908361083c565b60405183907f5152abf959f6564662358c2e52b702259b78bac5ee7842a0f01937e670efcc7d90600090a2505050565b6000831180156105665750600081115b6105b25760405162461bcd60e51b815260206004820181905260248201527f416d6f756e74206d7573742062652067726561746572207468616e207a65726f60448201526064016101b6565b6040516bffffffffffffffffffffffff19606086811b8216602084015284901b166034820152604881018490526068810182905242608882015260009060a80160408051601f19818403018152828252805160209182012060a0840183523384526001600160a01b038981168584018181528686018b81528a841660608901908152608089018b815260008781529788905297909620975188549085166001600160a01b031991821617895591516001890180549186169184169190911790555160028801559351600387018054919093169416939093179055915160049093019290925591506106c1578334146106bc5760405162461bcd60e51b81526004016101b690610aa6565b6106d6565b6106d66001600160a01b0386163330876107cf565b604080516001600160a01b0387811682528516602082015290810185905260608101839052339082907f961e6438a987eab19d9850691e56ca64f442dbb689801b0f3cfc1381c98ed15e9060800160405180910390a35050505050565b804710156107565760405163cd78605960e01b81523060048201526024016101b6565b6000826001600160a01b03168260405160006040518083038185875af1925050503d80600081146107a3576040519150601f19603f3d011682016040523d82523d6000602084013e6107a8565b606091505b50509050806107ca57604051630a12f52160e11b815260040160405180910390fd5b505050565b6040516001600160a01b0384811660248301528381166044830152606482018390526108369186918216906323b872dd906084015b604051602081830303815290604052915060e01b6020820180516001600160e01b03838183161783525050505061086d565b50505050565b6040516001600160a01b038381166024830152604482018390526107ca91859182169063a9059cbb90606401610804565b60006108826001600160a01b038416836108d0565b905080516000141580156108a75750808060200190518101906108a59190610b30565b155b156107ca57604051635274afe760e01b81526001600160a01b03841660048201526024016101b6565b60606108de838360006108e7565b90505b92915050565b60608147101561090c5760405163cd78605960e01b81523060048201526024016101b6565b600080856001600160a01b031684866040516109289190610b52565b60006040518083038185875af1925050503d8060008114610965576040519150601f19603f3d011682016040523d82523d6000602084013e61096a565b606091505b509150915061097a868383610986565b925050505b9392505050565b60608261099b57610996826109e2565b61097f565b81511580156109b257506001600160a01b0384163b155b156109db57604051639996b31560e01b81526001600160a01b03851660048201526024016101b6565b508061097f565b8051156109f25780518082602001fd5b604051630a12f52160e11b815260040160405180910390fd5b60008060408385031215610a1e57600080fd5b50508035926020909101359150565b600060208284031215610a3f57600080fd5b5035919050565b80356001600160a01b0381168114610a5d57600080fd5b919050565b60008060008060808587031215610a7857600080fd5b610a8185610a46565b935060208501359250610a9660408601610a46565b9396929550929360600135925050565b6020808252600e908201526d125b9d985b1a5908185b5bdd5b9d60921b604082015260600190565b634e487b7160e01b600052601160045260246000fd5b80820281158282048414176108e1576108e1610ace565b600082610b1857634e487b7160e01b600052601260045260246000fd5b500490565b818103818111156108e1576108e1610ace565b600060208284031215610b4257600080fd5b8151801515811461097f57600080fd5b6000825160005b81811015610b735760208186018101518583015201610b59565b50600092019182525091905056fea2646970667358221220afd28d3f2c99d13f258d1efc86e5bc970b462e7eea0ce13844987f56189b3e3064736f6c63430008180033",
  "devdoc": {
    "errors": {
      "AddressEmptyCode(address)": [
        {
          "details": "There's no code at `target` (it is not a contract)."
        }
      ],
      "AddressInsufficientBalance(address)": [
        {
          "details": "The ETH balance of the account is not enough to perform the operation."
        }
      ],
      "FailedInnerCall()": [
        {
          "details": "A call to an address target failed. The target may have reverted."
        }
      ],
      "SafeERC20FailedOperation(address)": [
        {
          "details": "An operation with an ERC20 token failed."
        }
      ]
    },
    "kind": "dev",
    "methods": {},
    "version": 1
  },
  "userdoc": {
    "kind": "user",
    "methods": {},
    "version": 1
  },
  "storageLayout": {
    "storage": [
      {
        "astId": 1394,
        "contract": "contracts/TokenSwap.sol:TokenSwap",
        "label": "orders",
        "offset": 0,
        "slot": "0",
        "type": "t_mapping(t_bytes32,t_struct(Order)1389_storage)"
      }
    ],
    "types": {
      "t_address": {
        "encoding": "inplace",
        "label": "address",
        "numberOfBytes": "20"
      },
      "t_bytes32": {
        "encoding": "inplace",
        "label": "bytes32",
        "numberOfBytes": "32"
      },
      "t_mapping(t_bytes32,t_struct(Order)1389_storage)": {
        "encoding": "mapping",
        "key": "t_bytes32",
        "label": "mapping(bytes32 => struct TokenSwap.Order)",
        "numberOfBytes": "32",
        "value": "t_struct(Order)1389_storage"
      },
      "t_struct(Order)1389_storage": {
        "encoding": "inplace",
        "label": "struct TokenSwap.Order",
        "members": [
          {
            "astId": 1380,
            "contract": "contracts/TokenSwap.sol:TokenSwap",
            "label": "seller",
            "offset": 0,
            "slot": "0",
            "type": "t_address"
          },
          {
            "astId": 1382,
            "contract": "contracts/TokenSwap.sol:TokenSwap",
            "label": "tokenA",
            "offset": 0,
            "slot": "1",
            "type": "t_address"
          },
          {
            "astId": 1384,
            "contract": "contracts/TokenSwap.sol:TokenSwap",
            "label": "amountA",
            "offset": 0,
            "slot": "2",
            "type": "t_uint256"
          },
          {
            "astId": 1386,
            "contract": "contracts/TokenSwap.sol:TokenSwap",
            "label": "tokenB",
            "offset": 0,
            "slot": "3",
            "type": "t_address"
          },
          {
            "astId": 1388,
            "contract": "contracts/TokenSwap.sol:TokenSwap",
            "label": "amountB",
            "offset": 0,
            "slot": "4",
            "type": "t_uint256"
          }
        ],
        "numberOfBytes": "160"
      },
      "t_uint256": {
        "encoding": "inplace",
        "label": "uint256",
        "numberOfBytes": "32"
      }
    }
  }
}